{
  "_format": "hh-sol-artifact-1",
  "contractName": "PaymentContract",
  "sourceName": "contracts/PaymentContract.sol",
  "abi": [
    {
      "inputs": [
        {
          "internalType": "address",
          "name": "_ecoFund",
          "type": "address"
        }
      ],
      "stateMutability": "nonpayable",
      "type": "constructor"
    },
    {
      "anonymous": false,
      "inputs": [
        {
          "indexed": true,
          "internalType": "address",
          "name": "from",
          "type": "address"
        },
        {
          "indexed": true,
          "internalType": "address",
          "name": "to",
          "type": "address"
        },
        {
          "indexed": false,
          "internalType": "uint256",
          "name": "amount",
          "type": "uint256"
        },
        {
          "indexed": false,
          "internalType": "uint256",
          "name": "donation",
          "type": "uint256"
        }
      ],
      "name": "PaymentSent",
      "type": "event"
    },
    {
      "inputs": [],
      "name": "ecoFund",
      "outputs": [
        {
          "internalType": "address",
          "name": "",
          "type": "address"
        }
      ],
      "stateMutability": "view",
      "type": "function"
    },
    {
      "inputs": [
        {
          "internalType": "address",
          "name": "receiver",
          "type": "address"
        }
      ],
      "name": "sendPayment",
      "outputs": [],
      "stateMutability": "payable",
      "type": "function"
    }
  ],
  "bytecode": "0x608060405234801561001057600080fd5b506040516108773803806108778339818101604052810190610032919061014a565b600073ffffffffffffffffffffffffffffffffffffffff168173ffffffffffffffffffffffffffffffffffffffff16036100a1576040517f08c379a0000000000000000000000000000000000000000000000000000000008152600401610098906101d4565b60405180910390fd5b806000806101000a81548173ffffffffffffffffffffffffffffffffffffffff021916908373ffffffffffffffffffffffffffffffffffffffff160217905550506101f4565b600080fd5b600073ffffffffffffffffffffffffffffffffffffffff82169050919050565b6000610117826100ec565b9050919050565b6101278161010c565b811461013257600080fd5b50565b6000815190506101448161011e565b92915050565b6000602082840312156101605761015f6100e7565b5b600061016e84828501610135565b91505092915050565b600082825260208201905092915050565b7f696e76616c69642065636f46756e640000000000000000000000000000000000600082015250565b60006101be600f83610177565b91506101c982610188565b602082019050919050565b600060208201905081810360008301526101ed816101b1565b9050919050565b610674806102036000396000f3fe6080604052600436106100295760003560e01c80638a7644a81461002e578063de80c8581461004a575b600080fd5b61004860048036038101906100439190610347565b610075565b005b34801561005657600080fd5b5061005f6102c0565b60405161006c9190610383565b60405180910390f35b600034116100b8576040517f08c379a00000000000000000000000000000000000000000000000000000000081526004016100af906103fb565b60405180910390fd5b60006064346100c79190610483565b9050600081346100d791906104b4565b905060008373ffffffffffffffffffffffffffffffffffffffff16826040516100ff90610519565b60006040518083038185875af1925050503d806000811461013c576040519150601f19603f3d011682016040523d82523d6000602084013e610141565b606091505b5050905080610185576040517f08c379a000000000000000000000000000000000000000000000000000000000815260040161017c9061057a565b60405180910390fd5b60008060009054906101000a900473ffffffffffffffffffffffffffffffffffffffff1673ffffffffffffffffffffffffffffffffffffffff16846040516101cc90610519565b60006040518083038185875af1925050503d8060008114610209576040519150601f19603f3d011682016040523d82523d6000602084013e61020e565b606091505b5050905080610252576040517f08c379a0000000000000000000000000000000000000000000000000000000008152600401610249906105e6565b60405180910390fd5b8473ffffffffffffffffffffffffffffffffffffffff163373ffffffffffffffffffffffffffffffffffffffff167f6af891475b82ff839770dcb2e5b7c10771f7b8058868dd11aa25d9187fd1423585876040516102b1929190610615565b60405180910390a35050505050565b60008054906101000a900473ffffffffffffffffffffffffffffffffffffffff1681565b600080fd5b600073ffffffffffffffffffffffffffffffffffffffff82169050919050565b6000610314826102e9565b9050919050565b61032481610309565b811461032f57600080fd5b50565b6000813590506103418161031b565b92915050565b60006020828403121561035d5761035c6102e4565b5b600061036b84828501610332565b91505092915050565b61037d81610309565b82525050565b60006020820190506103986000830184610374565b92915050565b600082825260208201905092915050565b7f7a65726f20616d6f756e74000000000000000000000000000000000000000000600082015250565b60006103e5600b8361039e565b91506103f0826103af565b602082019050919050565b60006020820190508181036000830152610414816103d8565b9050919050565b6000819050919050565b7f4e487b7100000000000000000000000000000000000000000000000000000000600052601260045260246000fd5b7f4e487b7100000000000000000000000000000000000000000000000000000000600052601160045260246000fd5b600061048e8261041b565b91506104998361041b565b9250826104a9576104a8610425565b5b828204905092915050565b60006104bf8261041b565b91506104ca8361041b565b92508282039050818111156104e2576104e1610454565b5b92915050565b600081905092915050565b50565b60006105036000836104e8565b915061050e826104f3565b600082019050919050565b6000610524826104f6565b9150819050919050565b7f7472616e7366657220746f207265636569766572206661696c65640000000000600082015250565b6000610564601b8361039e565b915061056f8261052e565b602082019050919050565b6000602082019050818103600083015261059381610557565b9050919050565b7f646f6e6174696f6e207472616e73666572206661696c65640000000000000000600082015250565b60006105d060188361039e565b91506105db8261059a565b602082019050919050565b600060208201905081810360008301526105ff816105c3565b9050919050565b61060f8161041b565b82525050565b600060408201905061062a6000830185610606565b6106376020830184610606565b939250505056fea26469706673582212202ded47c32c920dba33f3df0e6aeff51b714a595ce9fd362e0eb4423a3b8226bb64736f6c63430008110033",
  "linkReferences": {},
  "deployedLinkReferences": {}
}