{
  "_format": "hh-sol-artifact-1",
  "contractName": "PhoneMapping",
  "sourceName": "contracts/PhoneMapping.sol",
  "abi": [
    {
      "anonymous": false,
      "inputs": [
        {
          "indexed": true,
          "internalType": "bytes32",
          "name": "phoneHash",
          "type": "bytes32"
        },
        {
          "indexed": true,
          "internalType": "address",
          "name": "owner",
          "type": "address"
        }
      ],
      "name": "PhoneRegistered",
      "type": "event"
    },
    {
      "inputs": [
        {
          "internalType": "bytes32",
          "name": "phoneHash",
          "type": "bytes32"
        }
      ],
      "name": "getWallet",
      "outputs": [
        {
          "internalType": "address",
          "name": "",
          "type": "address"
        }
      ],
      "stateMutability": "view",
      "type": "function"
    },
    {
      "inputs": [
        {
          "internalType": "bytes32",
          "name": "",
          "type": "bytes32"
        }
      ],
      "name": "phoneToWallet",
      "outputs": [
        {
          "internalType": "address",
          "name": "",
          "type": "address"
        }
      ],
      "stateMutability": "view",
      "type": "function"
    },
    {
      "inputs": [
        {
          "internalType": "bytes32",
          "name": "phoneHash",
          "type": "bytes32"
        }
      ],
      "name": "registerPhone",
      "outputs": [],
      "stateMutability": "nonpayable",
      "type": "function"
    }
  ],
  "bytecode": "0x608060405234801561001057600080fd5b50610385806100206000396000f3fe608060405234801561001057600080fd5b50600436106100415760003560e01c80634f8afe0214610046578063789d392a14610062578063b60ced0c14610092575b600080fd5b610060600480360381019061005b9190610249565b6100c2565b005b61007c60048036038101906100779190610249565b61019f565b60405161008991906102b7565b60405180910390f35b6100ac60048036038101906100a79190610249565b6101db565b6040516100b991906102b7565b60405180910390f35b6000801b8103610107576040517f08c379a00000000000000000000000000000000000000000000000000000000081526004016100fe9061032f565b60405180910390fd5b3360008083815260200190815260200160002060006101000a81548173ffffffffffffffffffffffffffffffffffffffff021916908373ffffffffffffffffffffffffffffffffffffffff1602179055503373ffffffffffffffffffffffffffffffffffffffff16817f786c008769efb3c8188a53953d6cbca8dfbc4b4de8855d1c103b5ec78318620060405160405180910390a350565b600080600083815260200190815260200160002060009054906101000a900473ffffffffffffffffffffffffffffffffffffffff169050919050565b60006020528060005260406000206000915054906101000a900473ffffffffffffffffffffffffffffffffffffffff1681565b600080fd5b6000819050919050565b61022681610213565b811461023157600080fd5b50565b6000813590506102438161021d565b92915050565b60006020828403121561025f5761025e61020e565b5b600061026d84828501610234565b91505092915050565b600073ffffffffffffffffffffffffffffffffffffffff82169050919050565b60006102a182610276565b9050919050565b6102b181610296565b82525050565b60006020820190506102cc60008301846102a8565b92915050565b600082825260208201905092915050565b7f696e76616c696420686173680000000000000000000000000000000000000000600082015250565b6000610319600c836102d2565b9150610324826102e3565b602082019050919050565b600060208201905081810360008301526103488161030c565b905091905056fea264697066735822122067b9da5c19acc192fdfea33ea6b1215e40e8f429fbff57f16bd6265ed48e08e364736f6c63430008110033",
  "linkReferences": {},
  "deployedLinkReferences": {}
}